:100000000C942A000C943F000C943F000C943F0089
:100010000C943F000C943F000C943F000C943F0064
:100020000C943F000C943F000C943F000C943F0054
:100030000C943F000C943F000C943F000C943F0044
:100040000C943F000C943F000C943F000C943F0034
:100050000C943F0011241FBECFE5D4E0DEBFCDBF1E
:1000600010E0A0E6B0E0EAEDF1E002C005900D92EC
:10007000AC36B107D9F70E94E1000C94EB000C9468
:100080000000C198882314F4AF9A01C0AF9886FF8E
:1000900002C0AE9A01C0AE9885FF02C0AD9A01C001
:1000A000AD9884FF02C0AC9A01C0AC9883FF02C037
:1000B000AF9A01C0AF9882FF02C0AE9A01C0AE985D
:1000C00081FF02C0AD9A01C0AD9880FF02C0AC9A1A
:1000D00001C0AC98C09A89EF90E00197F1F700C099
:1000E0000000C09889EF90E00197F1F700C0000090
:1000F000089584B38FEF84BBB89AB99A81EE94E0E7
:100100000197F1F700C0000082E00E94410088E200
:100110000E94410081E00E9441008CE00E94410069
:1001200080E80E94410087E893E10197F1F700C061
:1001300000000895C19A882314F4AF9A01C0AF98C3
:1001400086FF02C0AE9A01C0AE9885FF02C0AD9A8C
:1001500001C0AD9884FF02C0AC9A01C0AC9883FF87
:1001600002C0AF9A01C0AF9882FF02C0AE9A01C030
:10017000AE9881FF02C0AD9A01C0AD9880FF02C069
:10018000AC9A01C0AC98C09A89EF90E00197F1F762
:1001900000C00000C09889EF90E00197F1F700C01F
:1001A00000000895CF93DF93EC018881882331F01C
:1001B00021960E949A0089918111FBCFDF91CF9106
:1001C00008950E94790081E00E94410080E690E05D
:0A01D0000E94D200FFCFF894FFCF89
:0C01DA0061686D656468617373616E009C
:00000001FF
